:02000000E928ED
:0E0006008316031325088A00240882000800D0
:10001400831603139818102800000A283108831245
:040024009900080037
:0E0028001D3083120313FD00FD0B1828080085
:1000360003208A110A128000840AA40A0319A50A59
:08004600F003031D1B28080054
:10004E008316031398169030831298008316871721
:10005E00071383128C1E36281A08F0003028080069
:10006E0083160313B0012E0884000008AF002F087A
:10007E00003A03194D282F08B1000A208316B00A42
:0E008E0030082E0784000008AF003E2808004E
:10009C0083120313FB01FA01F9018030F800F10C13
:1000AC00F00C031C62287408F90775080318750F07
:1000BC00FA070318FB0A0310F01F6A287408FA07E2
:1000CC0075080318750FFB07FB0CFA0CF90CF80CF0
:1000DC00031C55287B08F3007A08F2007908F1001C
:0600EC007808F000080096
:0E00F2000030831203138C1A0130F000080056
:10010000831203137008F100F0010830FC0071083D
:10011000F40C03188F28FC0B8828F101003403101D
:100120009428F40C0318F107F10CF00CFC0B912847
:020130000800C5
:10013200C330831203139F05C0309F0083162E081D
:10014200F000F00D7010F00D7010700883129F0413
:100152006809F000700883169F059F1783121F1409
:1001620014209F149F1CB7280000B3281F101E08DC
:10017200F100F00183161E08F0040030F1040800BB
:10018200831203131A08F100981CC92818121816B2
:060192007108F0000800F6
:1001980083120313F801F9011030FC00710DF80DFA
:1001A800F90D7408F8027508031C750FF902031895
:1001B800E4287408F80775080318750FF907031081
:0A01C800F00DF10DFC0BD228080029
:1001D2003E230C30831603139F040515FF30850060
:1001E20007148714880183128801673083169900E7
:1001F200181527200330FB000830FC007730FD0083
:10020200FD0B0129FC0B0129FB0B0129333083165D
:10021200AE0037200D30B1000A200A308316B1003B
:100222000A2020308316AE0037200D30B1000A209C
:100232000A308316B1000A20FF30880083120718A3
:100242002429031425290310031CE92A79207008A4
:100252000319A629C12070088316A2007008B100F4
:100262000A2083162208303A031D3A2901308312EC
:10027200880083162208313A031D42290230831274
:10028200880083162208323A031D4A290430831259
:10029200880083162208333A031D5229083083123C
:1002A200880083162208343A031D5A29103083121B
:1002B200880083162208353A031D622920308312F2
:1002C200880083162208363A031D6A2940308312B9
:1002D200880083162208373A031D72298030831260
:1002E2008800831622084C3A031D7A29FF308312B4
:1002F200880083162208443A031D8129831288014B
:1003020083162208493A031D882983128809831615
:100312002208413A031D9029AA30831288008316CD
:100322002208453A031D98295530831288000B3064
:10033200FB002630FC005D30FD00FD0B9E29FC0B0E
:100342009E29FB0B9E29000000008312071D142A20
:1003520054308316AE0037205C30AE003720603058
:10036200AE0037205E30AE0037204830AE00372076
:100372004030AE0037204C30AE003720F0018312FF
:100382000818F00A7008303E8316B1000A20F00106
:100392008818F00A7008303E8316B1000A20F00176
:1003A2000819F00A7008303E8316B1000A20F001E5
:1003B2008819F00A7008303E8316B1000A20F00155
:1003C200081AF00A7008303E8316B1000A20F001C4
:1003D200881AF00A7008303E8316B1000A20F00134
:1003E200081BF00A7008303E8316B1000A20F001A3
:1003F200881BF00A7008303E8316B1000A20523082
:100402008316AE0037204E30AE0037201530FB0089
:100412004B30FC00BE30FD00FD0B0D2AFC0B0D2AFB
:10042200FB0B0D2A00008312871CE92A3E3083163B
:10043200AE003720F00183120818F00A7008303E2F
:100442008316B1000A20F0018818F00A7008303EC5
:100452008316B1000A20F0010819F00A7008303E34
:100462008316B1000A20F0018819F00A7008303EA4
:100472008316B1000A20F001081AF00A7008303E13
:100482008316B1000A20F001881AF00A7008303E83
:100492008316B1000A20F001081BF00A7008303EF2
:1004A2008316B1000A20F001881BF00A7008303E62
:1004B2008316B1000A203C308316AE00372002308A
:1004C200AE0099207008AC007108AD002C08A000A5
:1004D2002D08A100E830F4000330F5002C08F000EC
:1004E2002D08F100CC207008EF000030F100E83058
:1004F200F4000330F5004E2070088316AA0071083C
:10050200AB002A082C02F0002B08031C013E2D022E
:10051200F1006430F4000030F500CC207008ED00EA
:1005220083162A08F200F30172082C02A80073084D
:10053200031C013E2D02A9006430F40080207008E3
:100542008316A6007108A70026082802F0002708D3
:10055200031C013E2902F1000A30F4000030F500CC
:10056200CC207008EE0083162A082C02A30026086D
:10057200A3020A30F400802070088316A3026930B7
:10058200AE00372083126F08303E8316B1000A2076
:100592006D08303E8316B1000A206E08303E831685
:1005A200B1000A2083162308303EB1000A206B30C6
:1005B2008316AE0037201530FB004B30FC00BE30F6
:1005C200FD00FD0BE22AFC0BE22AFB0BE22A0000F3
:0405D2001F29EA2AC9
:10067C00203084004D3083120313F000F0308316C9
:0A068C00A4000230A5001B200800A6
:1005E000533469346D342C342034703465347234AF
:1005F000663465346934743461346D3465346E3412
:060600007434653400347F
:1006060043346F346E346534633474346F34753404
:020616000034AE
:040618002034003456
:04061C00443400342E
:10062000643430342E347434783474343D340034CB
:08063000FF34FF34FF340034F5
:040638002234003434
:08063C00FF34FF34FF340034E9
:040644002234003428
:10064800743469342E347434783474343D3400345A
:040658002234003414
:04065C002234003410
:100660004E3465347834743469346F346E34003405
:02067000303424
:0406720041340034DB
:0406760020340034F8
:04400E00F22F000786
:00000001FF
